{"bytecode":"61049f61003a600b82828239805160001a60731461002d57634e487b7160e01b600052600060045260246000fd5b30600052607381538281f3fe73000000000000000000000000000000000000000030146080604052600436106100405760003560e01c806313523a8714610045578063bc896f7214610077575b600080fd5b81801561005157600080fd5b50610065610060366004610365565b61008a565b60405190815260200160405180910390f35b6100656100853660046103bc565b6102bc565b6040516370a0823160e01b815230600482015260009081906001600160a01b038816906370a082319060240160206040518083038186803b1580156100ce57600080fd5b505afa1580156100e2573d6000803e3d6000fd5b505050506040513d601f19601f8201168201806040525081019061010691906103e6565b9050600081116101495760405162461bcd60e51b81526020600482015260096024820152684e6f20746f6b656e7360b81b60448201526064015b60405180910390fd5b80851115610155578094505b6101628462093a806103ff565b42116101a55760405162461bcd60e51b8152602060048201526012602482015271109c9a589948185b1c9958591e481cd95b9d60721b6044820152606401610140565b60405163df40696760e01b81526001600160a01b03878116600483015288811660248301526044820187905284169063df40696790606401602060405180830381600087803b1580156101f757600080fd5b505af115801561020b573d6000803e3d6000fd5b505050506040513d601f19601f8201168201806040525081019061022f9190610425565b50604051632de24ac760e01b81526001600160a01b0387811660048301528881166024830152841690632de24ac79060440160206040518083038186803b15801561027957600080fd5b505afa15801561028d573d6000803e3d6000fd5b505050506040513d601f19601f820116820180604052508101906102b191906103e6565b979650505050505050565b6040516370a0823160e01b815230600482015260009082906001600160a01b038516906370a082319060240160206040518083038186803b15801561030057600080fd5b505afa158015610314573d6000803e3d6000fd5b505050506040513d601f19601f8201168201806040525081019061033891906103e6565b6103429190610447565b9392505050565b80356001600160a01b038116811461036057600080fd5b919050565b600080600080600060a0868803121561037d57600080fd5b61038686610349565b945061039460208701610349565b935060408601359250606086013591506103b060808701610349565b90509295509295909350565b600080604083850312156103cf57600080fd5b6103d883610349565b946020939093013593505050565b6000602082840312156103f857600080fd5b5051919050565b6000821982111561042057634e487b7160e01b600052601160045260246000fd5b500190565b60006020828403121561043757600080fd5b8151801515811461034257600080fd5b60008261046457634e487b7160e01b600052601260045260246000fd5b50049056fea264697066735822122000afcbf52b0b09c6069e5125b9f84c92ae496b457237d91555495deef3efcc8e64736f6c63430008090033","bytecodeSha1":"73d279eb073fe3ceeaf8cebd77166a5aa8318b74","type":"library","abi":[{"inputs":[{"internalType":"address","name":"TOKEN","type":"address"},{"internalType":"uint256","name":"TOKENS_PER_VOTE","type":"uint256"}],"name":"votesLeft","outputs":[{"internalType":"uint256","name":"","type":"uint256"}],"stateMutability":"view","type":"function"}],"compiler":{"version":"0.8.9+commit.e5eed63a","evm_version":"istanbul","optimizer":{"enabled":true,"runs":200}},"contractName":"BribesLogic","language":"Solidity","natspec":{"methods":{"sendBribe(address,address,uint256,uint256,address)":{"details":"sends the token incentives to curve gauge votes for the next vote cycle/period"},"votesLeft(address,uint256)":{"details":"returns the remaining number of votig cycles that the contract can vote for with current token balance"}},"kind":"dev","version":1},"opcodes":"PUSH20 0x0 ADDRESS EQ PUSH1 0x80 PUSH1 0x40 MSTORE PUSH1 0x4 CALLDATASIZE LT PUSH2 0x40 JUMPI PUSH1 0x0 CALLDATALOAD PUSH1 0xE0 SHR DUP1 PUSH4 0x13523A87 EQ PUSH2 0x45 JUMPI DUP1 PUSH4 0xBC896F72 EQ PUSH2 0x77 JUMPI JUMPDEST PUSH1 0x0 DUP1 REVERT JUMPDEST DUP2 DUP1 ISZERO PUSH2 0x51 JUMPI PUSH1 0x0 DUP1 REVERT JUMPDEST POP PUSH2 0x65 PUSH2 0x60 CALLDATASIZE PUSH1 0x4 PUSH2 0x365 JUMP JUMPDEST PUSH2 0x8A JUMP JUMPDEST PUSH1 0x40 MLOAD SWAP1 DUP2 MSTORE PUSH1 0x20 ADD PUSH1 0x40 MLOAD DUP1 SWAP2 SUB SWAP1 RETURN JUMPDEST PUSH2 0x65 PUSH2 0x85 CALLDATASIZE PUSH1 0x4 PUSH2 0x3BC JUMP JUMPDEST PUSH2 0x2BC JUMP JUMPDEST PUSH1 0x40 MLOAD PUSH4 0x70A08231 PUSH1 0xE0 SHL DUP2 MSTORE ADDRESS PUSH1 0x4 DUP3 ADD MSTORE PUSH1 0x0 SWAP1 DUP2 SWAP1 PUSH1 0x1 PUSH1 0x1 PUSH1 0xA0 SHL SUB DUP9 AND SWAP1 PUSH4 0x70A08231 SWAP1 PUSH1 0x24 ADD PUSH1 0x20 PUSH1 0x40 MLOAD DUP1 DUP4 SUB DUP2 DUP7 DUP1 EXTCODESIZE ISZERO DUP1 ISZERO PUSH2 0xCE JUMPI PUSH1 0x0 DUP1 REVERT JUMPDEST POP GAS STATICCALL ISZERO DUP1 ISZERO PUSH2 0xE2 JUMPI RETURNDATASIZE PUSH1 0x0 DUP1 RETURNDATACOPY RETURNDATASIZE PUSH1 0x0 REVERT JUMPDEST POP POP POP POP PUSH1 0x40 MLOAD RETURNDATASIZE PUSH1 0x1F NOT PUSH1 0x1F DUP3 ADD AND DUP3 ADD DUP1 PUSH1 0x40 MSTORE POP DUP2 ADD SWAP1 PUSH2 0x106 SWAP2 SWAP1 PUSH2 0x3E6 JUMP JUMPDEST SWAP1 POP PUSH1 0x0 DUP2 GT PUSH2 0x149 JUMPI PUSH1 0x40 MLOAD PUSH3 0x461BCD PUSH1 0xE5 SHL DUP2 MSTORE PUSH1 0x20 PUSH1 0x4 DUP3 ADD MSTORE PUSH1 0x9 PUSH1 0x24 DUP3 ADD MSTORE PUSH9 0x4E6F20746F6B656E73 PUSH1 0xB8 SHL PUSH1 0x44 DUP3 ADD MSTORE PUSH1 0x64 ADD JUMPDEST PUSH1 0x40 MLOAD DUP1 SWAP2 SUB SWAP1 REVERT JUMPDEST DUP1 DUP6 GT ISZERO PUSH2 0x155 JUMPI DUP1 SWAP5 POP JUMPDEST PUSH2 0x162 DUP5 PUSH3 0x93A80 PUSH2 0x3FF JUMP JUMPDEST TIMESTAMP GT PUSH2 0x1A5 JUMPI PUSH1 0x40 MLOAD PUSH3 0x461BCD PUSH1 0xE5 SHL DUP2 MSTORE PUSH1 0x20 PUSH1 0x4 DUP3 ADD MSTORE PUSH1 0x12 PUSH1 0x24 DUP3 ADD MSTORE PUSH18 0x109C9A589948185B1C9958591E481CD95B9D PUSH1 0x72 SHL PUSH1 0x44 DUP3 ADD MSTORE PUSH1 0x64 ADD PUSH2 0x140 JUMP JUMPDEST PUSH1 0x40 MLOAD PUSH4 0xDF406967 PUSH1 0xE0 SHL DUP2 MSTORE PUSH1 0x1 PUSH1 0x1 PUSH1 0xA0 SHL SUB DUP8 DUP2 AND PUSH1 0x4 DUP4 ADD MSTORE DUP9 DUP2 AND PUSH1 0x24 DUP4 ADD MSTORE PUSH1 0x44 DUP3 ADD DUP8 SWAP1 MSTORE DUP5 AND SWAP1 PUSH4 0xDF406967 SWAP1 PUSH1 0x64 ADD PUSH1 0x20 PUSH1 0x40 MLOAD DUP1 DUP4 SUB DUP2 PUSH1 0x0 DUP8 DUP1 EXTCODESIZE ISZERO DUP1 ISZERO PUSH2 0x1F7 JUMPI PUSH1 0x0 DUP1 REVERT JUMPDEST POP GAS CALL ISZERO DUP1 ISZERO PUSH2 0x20B JUMPI RETURNDATASIZE PUSH1 0x0 DUP1 RETURNDATACOPY RETURNDATASIZE PUSH1 0x0 REVERT JUMPDEST POP POP POP POP PUSH1 0x40 MLOAD RETURNDATASIZE PUSH1 0x1F NOT PUSH1 0x1F DUP3 ADD AND DUP3 ADD DUP1 PUSH1 0x40 MSTORE POP DUP2 ADD SWAP1 PUSH2 0x22F SWAP2 SWAP1 PUSH2 0x425 JUMP JUMPDEST POP PUSH1 0x40 MLOAD PUSH4 0x2DE24AC7 PUSH1 0xE0 SHL DUP2 MSTORE PUSH1 0x1 PUSH1 0x1 PUSH1 0xA0 SHL SUB DUP8 DUP2 AND PUSH1 0x4 DUP4 ADD MSTORE DUP9 DUP2 AND PUSH1 0x24 DUP4 ADD MSTORE DUP5 AND SWAP1 PUSH4 0x2DE24AC7 SWAP1 PUSH1 0x44 ADD PUSH1 0x20 PUSH1 0x40 MLOAD DUP1 DUP4 SUB DUP2 DUP7 DUP1 EXTCODESIZE ISZERO DUP1 ISZERO PUSH2 0x279 JUMPI PUSH1 0x0 DUP1 REVERT JUMPDEST POP GAS STATICCALL ISZERO DUP1 ISZERO PUSH2 0x28D JUMPI RETURNDATASIZE PUSH1 0x0 DUP1 RETURNDATACOPY RETURNDATASIZE PUSH1 0x0 REVERT JUMPDEST POP POP POP POP PUSH1 0x40 MLOAD RETURNDATASIZE PUSH1 0x1F NOT PUSH1 0x1F DUP3 ADD AND DUP3 ADD DUP1 PUSH1 0x40 MSTORE POP DUP2 ADD SWAP1 PUSH2 0x2B1 SWAP2 SWAP1 PUSH2 0x3E6 JUMP JUMPDEST SWAP8 SWAP7 POP POP POP POP POP POP POP JUMP JUMPDEST PUSH1 0x40 MLOAD PUSH4 0x70A08231 PUSH1 0xE0 SHL DUP2 MSTORE ADDRESS PUSH1 0x4 DUP3 ADD MSTORE PUSH1 0x0 SWAP1 DUP3 SWAP1 PUSH1 0x1 PUSH1 0x1 PUSH1 0xA0 SHL SUB DUP6 AND SWAP1 PUSH4 0x70A08231 SWAP1 PUSH1 0x24 ADD PUSH1 0x20 PUSH1 0x40 MLOAD DUP1 DUP4 SUB DUP2 DUP7 DUP1 EXTCODESIZE ISZERO DUP1 ISZERO PUSH2 0x300 JUMPI PUSH1 0x0 DUP1 REVERT JUMPDEST POP GAS STATICCALL ISZERO DUP1 ISZERO PUSH2 0x314 JUMPI RETURNDATASIZE PUSH1 0x0 DUP1 RETURNDATACOPY RETURNDATASIZE PUSH1 0x0 REVERT JUMPDEST POP POP POP POP PUSH1 0x40 MLOAD RETURNDATASIZE PUSH1 0x1F NOT PUSH1 0x1F DUP3 ADD AND DUP3 ADD DUP1 PUSH1 0x40 MSTORE POP DUP2 ADD SWAP1 PUSH2 0x338 SWAP2 SWAP1 PUSH2 0x3E6 JUMP JUMPDEST PUSH2 0x342 SWAP2 SWAP1 PUSH2 0x447 JUMP JUMPDEST SWAP4 SWAP3 POP POP POP JUMP JUMPDEST DUP1 CALLDATALOAD PUSH1 0x1 PUSH1 0x1 PUSH1 0xA0 SHL SUB DUP2 AND DUP2 EQ PUSH2 0x360 JUMPI PUSH1 0x0 DUP1 REVERT JUMPDEST SWAP2 SWAP1 POP JUMP JUMPDEST PUSH1 0x0 DUP1 PUSH1 0x0 DUP1 PUSH1 0x0 PUSH1 0xA0 DUP7 DUP9 SUB SLT ISZERO PUSH2 0x37D JUMPI PUSH1 0x0 DUP1 REVERT JUMPDEST PUSH2 0x386 DUP7 PUSH2 0x349 JUMP JUMPDEST SWAP5 POP PUSH2 0x394 PUSH1 0x20 DUP8 ADD PUSH2 0x349 JUMP JUMPDEST SWAP4 POP PUSH1 0x40 DUP7 ADD CALLDATALOAD SWAP3 POP PUSH1 0x60 DUP7 ADD CALLDATALOAD SWAP2 POP PUSH2 0x3B0 PUSH1 0x80 DUP8 ADD PUSH2 0x349 JUMP JUMPDEST SWAP1 POP SWAP3 SWAP6 POP SWAP3 SWAP6 SWAP1 SWAP4 POP JUMP JUMPDEST PUSH1 0x0 DUP1 PUSH1 0x40 DUP4 DUP6 SUB SLT ISZERO PUSH2 0x3CF JUMPI PUSH1 0x0 DUP1 REVERT JUMPDEST PUSH2 0x3D8 DUP4 PUSH2 0x349 JUMP JUMPDEST SWAP5 PUSH1 0x20 SWAP4 SWAP1 SWAP4 ADD CALLDATALOAD SWAP4 POP POP POP JUMP JUMPDEST PUSH1 0x0 PUSH1 0x20 DUP3 DUP5 SUB SLT ISZERO PUSH2 0x3F8 JUMPI PUSH1 0x0 DUP1 REVERT JUMPDEST POP MLOAD SWAP2 SWAP1 POP JUMP JUMPDEST PUSH1 0x0 DUP3 NOT DUP3 GT ISZERO PUSH2 0x420 JUMPI PUSH4 0x4E487B71 PUSH1 0xE0 SHL PUSH1 0x0 MSTORE PUSH1 0x11 PUSH1 0x4 MSTORE PUSH1 0x24 PUSH1 0x0 REVERT JUMPDEST POP ADD SWAP1 JUMP JUMPDEST PUSH1 0x0 PUSH1 0x20 DUP3 DUP5 SUB SLT ISZERO PUSH2 0x437 JUMPI PUSH1 0x0 DUP1 REVERT JUMPDEST DUP2 MLOAD DUP1 ISZERO ISZERO DUP2 EQ PUSH2 0x342 JUMPI PUSH1 0x0 DUP1 REVERT JUMPDEST PUSH1 0x0 DUP3 PUSH2 0x464 JUMPI PUSH4 0x4E487B71 PUSH1 0xE0 SHL PUSH1 0x0 MSTORE PUSH1 0x12 PUSH1 0x4 MSTORE PUSH1 0x24 PUSH1 0x0 REVERT JUMPDEST POP DIV SWAP1 JUMP INVALID LOG2 PUSH5 0x6970667358 0x22 SLT KECCAK256 STOP 0xAF 0xCB CREATE2 0x2B SIGNEXTEND MULMOD 0xC6 MOD SWAP15 MLOAD 0x25 0xB9 0xF8 0x4C SWAP3 0xAE 0x49 PUSH12 0x457237D91555495DEEF3EFCC DUP15 PUSH5 0x736F6C6343 STOP ADDMOD MULMOD STOP CALLER ","sha1":"2d09b432bb9266083a47b0f37af6f387755d694f","source":"// SPDX-License-Identifier: MIT\npragma solidity ^0.8.9;\n\nimport \"../../interfaces/curve/IBribeV2.sol\";\nimport \"../../interfaces/token/IERC20.sol\";\n\nlibrary BribesLogic {\n    /// @dev sends the token incentives to curve gauge votes for the next vote cycle/period\n    function sendBribe(address TOKEN, address GAUGE, uint TOKENS_PER_VOTE, uint lastPeriod, address CURVE_BRIBE) public returns (uint) {\n        uint balance = IERC20(TOKEN).balanceOf(address(this));\n        require(balance > 0, \"No tokens\");\n\n        if (TOKENS_PER_VOTE > balance) {\n            TOKENS_PER_VOTE = balance;\n        }\n\n        // this makes sure that the token incentives can be sent only once per vote \n        require (block.timestamp > lastPeriod + 604800, \"Bribe already sent\"); // 604800 seconds in 1 week\n\n        IBribeV2(CURVE_BRIBE).add_reward_amount(GAUGE, TOKEN, TOKENS_PER_VOTE);\n        return IBribeV2(CURVE_BRIBE).active_period(GAUGE, TOKEN);\n    }\n\n    /// @dev returns the remaining number of votig cycles that the contract can vote for with current token balance\n    function votesLeft(address TOKEN, uint TOKENS_PER_VOTE) public view returns (uint) {\n        return IERC20(TOKEN).balanceOf(address(this)) / TOKENS_PER_VOTE;\n    }\n}","sourcePath":"contracts/library/BribesLogic.sol","deployment":{"address":"0x361ffeaCe359841fd6E45bACD78a40946B552c89","chainid":"3","blockHeight":11599536}}