{"bytecode":"608060405234801561001057600080fd5b506105bd806100206000396000f3fe608060405234801561001057600080fd5b506004361061002b5760003560e01c80631e3c853214610030575b600080fd5b61004361003e36600461012b565b61005f565b6040516001600160a01b03909116815260200160405180910390f35b60008084848460405161007190610102565b6001600160a01b0393841681529290911660208301526040820152606001604051809103906000f0801580156100ab573d6000803e3d6000fd5b50604080516001600160a01b038089168252871660208201529081018590529091507fd59394e67db7491a2e3f7383369853d1c6536b04b85c122791a4a3cc42539b879060600160405180910390a1949350505050565b6104208061016883390190565b80356001600160a01b038116811461012657600080fd5b919050565b60008060006060848603121561014057600080fd5b6101498461010f565b92506101576020850161010f565b915060408401359050925092509256fe60e060405234801561001057600080fd5b5060405161042038038061042083398101604081905261002f916100f9565b6001600160a01b03838116608081905290831660a05260c082905260405163095ea7b360e01b8152737893bbb46613d7a4fbcc31dab4c9b823ffee10266004820152600019602482015263095ea7b390604401602060405180830381600087803b15801561009c57600080fd5b505af11580156100b0573d6000803e3d6000fd5b505050506040513d601f19601f820116820180604052508101906100d49190610135565b5050505061015e565b80516001600160a01b03811681146100f457600080fd5b919050565b60008060006060848603121561010e57600080fd5b610117846100dd565b9250610125602085016100dd565b9150604084015190509250925092565b60006020828403121561014757600080fd5b8151801515811461015757600080fd5b9392505050565b60805160a05160c05161028161019f6000396000818160610152610178015260008181609b015261015101526000818160e4015261012901526102816000f3fe608060405234801561001057600080fd5b50600436106100575760003560e01c8063752a09201461005c5780637651b1e6146100965780637f2dced7146100d557806382bfefc8146100df578063d340ef8a14610106575b600080fd5b6100837f000000000000000000000000000000000000000000000000000000000000000081565b6040519081526020015b60405180910390f35b6100bd7f000000000000000000000000000000000000000000000000000000000000000081565b6040516001600160a01b03909116815260200161008d565b6100dd61010f565b005b6100bd7f000000000000000000000000000000000000000000000000000000000000000081565b61008360005481565b6000546040516313523a8760e01b81526001600160a01b037f0000000000000000000000000000000000000000000000000000000000000000811660048301527f00000000000000000000000000000000000000000000000000000000000000001660248201527f000000000000000000000000000000000000000000000000000000000000000060448201526064810191909152737893bbb46613d7a4fbcc31dab4c9b823ffee1026608482015273__BribesLogic___________________________906313523a879060a40160206040518083038186803b1580156101f557600080fd5b505af4158015610209573d6000803e3d6000fd5b505050506040513d601f19601f8201168201806040525081019061022d9190610232565b600055565b60006020828403121561024457600080fd5b505191905056fea264697066735822122065981dd8dd90c5069baad47eac0b6c8c94963502cc5001c6a227d5247c65b3c764736f6c63430008090033a2646970667358221220dae170c716dba9f7be48e1707035dfd3ea68121bd3763cb8123e1bb6c60f7aaf64736f6c63430008090033","bytecodeSha1":"0a9121e6393cf51338fa2de5d53dbe4abe9924b0","type":"contract","abi":[{"anonymous":false,"inputs":[{"indexed":false,"internalType":"address","name":"token","type":"address"},{"indexed":false,"internalType":"address","name":"gauge","type":"address"},{"indexed":false,"internalType":"uint256","name":"tokens_per_vote","type":"uint256"}],"name":"NewManager","type":"event"},{"inputs":[{"internalType":"address","name":"token","type":"address"},{"internalType":"address","name":"gauge","type":"address"},{"internalType":"uint256","name":"tokens_per_vote","type":"uint256"}],"name":"deployManager","outputs":[{"internalType":"contract BribesManager","name":"","type":"address"}],"stateMutability":"nonpayable","type":"function"}],"compiler":{"version":"0.8.9+commit.e5eed63a","evm_version":"istanbul","optimizer":{"enabled":true,"runs":200}},"contractName":"BribesFactory","deployedBytecode":"608060405234801561001057600080fd5b506004361061002b5760003560e01c80631e3c853214610030575b600080fd5b61004361003e36600461012b565b61005f565b6040516001600160a01b03909116815260200160405180910390f35b60008084848460405161007190610102565b6001600160a01b0393841681529290911660208301526040820152606001604051809103906000f0801580156100ab573d6000803e3d6000fd5b50604080516001600160a01b038089168252871660208201529081018590529091507fd59394e67db7491a2e3f7383369853d1c6536b04b85c122791a4a3cc42539b879060600160405180910390a1949350505050565b6104208061016883390190565b80356001600160a01b038116811461012657600080fd5b919050565b60008060006060848603121561014057600080fd5b6101498461010f565b92506101576020850161010f565b915060408401359050925092509256fe60e060405234801561001057600080fd5b5060405161042038038061042083398101604081905261002f916100f9565b6001600160a01b03838116608081905290831660a05260c082905260405163095ea7b360e01b8152737893bbb46613d7a4fbcc31dab4c9b823ffee10266004820152600019602482015263095ea7b390604401602060405180830381600087803b15801561009c57600080fd5b505af11580156100b0573d6000803e3d6000fd5b505050506040513d601f19601f820116820180604052508101906100d49190610135565b5050505061015e565b80516001600160a01b03811681146100f457600080fd5b919050565b60008060006060848603121561010e57600080fd5b610117846100dd565b9250610125602085016100dd565b9150604084015190509250925092565b60006020828403121561014757600080fd5b8151801515811461015757600080fd5b9392505050565b60805160a05160c05161028161019f6000396000818160610152610178015260008181609b015261015101526000818160e4015261012901526102816000f3fe608060405234801561001057600080fd5b50600436106100575760003560e01c8063752a09201461005c5780637651b1e6146100965780637f2dced7146100d557806382bfefc8146100df578063d340ef8a14610106575b600080fd5b6100837f000000000000000000000000000000000000000000000000000000000000000081565b6040519081526020015b60405180910390f35b6100bd7f000000000000000000000000000000000000000000000000000000000000000081565b6040516001600160a01b03909116815260200161008d565b6100dd61010f565b005b6100bd7f000000000000000000000000000000000000000000000000000000000000000081565b61008360005481565b6000546040516313523a8760e01b81526001600160a01b037f0000000000000000000000000000000000000000000000000000000000000000811660048301527f00000000000000000000000000000000000000000000000000000000000000001660248201527f000000000000000000000000000000000000000000000000000000000000000060448201526064810191909152737893bbb46613d7a4fbcc31dab4c9b823ffee1026608482015273__$8d3e982442eab610d721b37768c40888b9$__906313523a879060a40160206040518083038186803b1580156101f557600080fd5b505af4158015610209573d6000803e3d6000fd5b505050506040513d601f19601f8201168201806040525081019061022d9190610232565b600055565b60006020828403121561024457600080fd5b505191905056fea264697066735822122065981dd8dd90c5069baad47eac0b6c8c94963502cc5001c6a227d5247c65b3c764736f6c63430008090033a2646970667358221220dae170c716dba9f7be48e1707035dfd3ea68121bd3763cb8123e1bb6c60f7aaf64736f6c63430008090033","language":"Solidity","natspec":{"methods":{},"kind":"dev","version":1},"opcodes":"PUSH1 0x80 PUSH1 0x40 MSTORE CALLVALUE DUP1 ISZERO PUSH2 0x10 JUMPI PUSH1 0x0 DUP1 REVERT JUMPDEST POP PUSH1 0x4 CALLDATASIZE LT PUSH2 0x2B JUMPI PUSH1 0x0 CALLDATALOAD PUSH1 0xE0 SHR DUP1 PUSH4 0x1E3C8532 EQ PUSH2 0x30 JUMPI JUMPDEST PUSH1 0x0 DUP1 REVERT JUMPDEST PUSH2 0x43 PUSH2 0x3E CALLDATASIZE PUSH1 0x4 PUSH2 0x12B JUMP JUMPDEST PUSH2 0x5F JUMP JUMPDEST PUSH1 0x40 MLOAD PUSH1 0x1 PUSH1 0x1 PUSH1 0xA0 SHL SUB SWAP1 SWAP2 AND DUP2 MSTORE PUSH1 0x20 ADD PUSH1 0x40 MLOAD DUP1 SWAP2 SUB SWAP1 RETURN JUMPDEST PUSH1 0x0 DUP1 DUP5 DUP5 DUP5 PUSH1 0x40 MLOAD PUSH2 0x71 SWAP1 PUSH2 0x102 JUMP JUMPDEST PUSH1 0x1 PUSH1 0x1 PUSH1 0xA0 SHL SUB SWAP4 DUP5 AND DUP2 MSTORE SWAP3 SWAP1 SWAP2 AND PUSH1 0x20 DUP4 ADD MSTORE PUSH1 0x40 DUP3 ADD MSTORE PUSH1 0x60 ADD PUSH1 0x40 MLOAD DUP1 SWAP2 SUB SWAP1 PUSH1 0x0 CREATE DUP1 ISZERO DUP1 ISZERO PUSH2 0xAB JUMPI RETURNDATASIZE PUSH1 0x0 DUP1 RETURNDATACOPY RETURNDATASIZE PUSH1 0x0 REVERT JUMPDEST POP PUSH1 0x40 DUP1 MLOAD PUSH1 0x1 PUSH1 0x1 PUSH1 0xA0 SHL SUB DUP1 DUP10 AND DUP3 MSTORE DUP8 AND PUSH1 0x20 DUP3 ADD MSTORE SWAP1 DUP2 ADD DUP6 SWAP1 MSTORE SWAP1 SWAP2 POP PUSH32 0xD59394E67DB7491A2E3F7383369853D1C6536B04B85C122791A4A3CC42539B87 SWAP1 PUSH1 0x60 ADD PUSH1 0x40 MLOAD DUP1 SWAP2 SUB SWAP1 LOG1 SWAP5 SWAP4 POP POP POP POP JUMP JUMPDEST PUSH2 0x420 DUP1 PUSH2 0x168 DUP4 CODECOPY ADD SWAP1 JUMP JUMPDEST DUP1 CALLDATALOAD PUSH1 0x1 PUSH1 0x1 PUSH1 0xA0 SHL SUB DUP2 AND DUP2 EQ PUSH2 0x126 JUMPI PUSH1 0x0 DUP1 REVERT JUMPDEST SWAP2 SWAP1 POP JUMP JUMPDEST PUSH1 0x0 DUP1 PUSH1 0x0 PUSH1 0x60 DUP5 DUP7 SUB SLT ISZERO PUSH2 0x140 JUMPI PUSH1 0x0 DUP1 REVERT JUMPDEST PUSH2 0x149 DUP5 PUSH2 0x10F JUMP JUMPDEST SWAP3 POP PUSH2 0x157 PUSH1 0x20 DUP6 ADD PUSH2 0x10F JUMP JUMPDEST SWAP2 POP PUSH1 0x40 DUP5 ADD CALLDATALOAD SWAP1 POP SWAP3 POP SWAP3 POP SWAP3 JUMP INVALID PUSH1 0xE0 PUSH1 0x40 MSTORE CALLVALUE DUP1 ISZERO PUSH2 0x10 JUMPI PUSH1 0x0 DUP1 REVERT JUMPDEST POP PUSH1 0x40 MLOAD PUSH2 0x420 CODESIZE SUB DUP1 PUSH2 0x420 DUP4 CODECOPY DUP2 ADD PUSH1 0x40 DUP2 SWAP1 MSTORE PUSH2 0x2F SWAP2 PUSH2 0xF9 JUMP JUMPDEST PUSH1 0x1 PUSH1 0x1 PUSH1 0xA0 SHL SUB DUP4 DUP2 AND PUSH1 0x80 DUP2 SWAP1 MSTORE SWAP1 DUP4 AND PUSH1 0xA0 MSTORE PUSH1 0xC0 DUP3 SWAP1 MSTORE PUSH1 0x40 MLOAD PUSH4 0x95EA7B3 PUSH1 0xE0 SHL DUP2 MSTORE PUSH20 0x7893BBB46613D7A4FBCC31DAB4C9B823FFEE1026 PUSH1 0x4 DUP3 ADD MSTORE PUSH1 0x0 NOT PUSH1 0x24 DUP3 ADD MSTORE PUSH4 0x95EA7B3 SWAP1 PUSH1 0x44 ADD PUSH1 0x20 PUSH1 0x40 MLOAD DUP1 DUP4 SUB DUP2 PUSH1 0x0 DUP8 DUP1 EXTCODESIZE ISZERO DUP1 ISZERO PUSH2 0x9C JUMPI PUSH1 0x0 DUP1 REVERT JUMPDEST POP GAS CALL ISZERO DUP1 ISZERO PUSH2 0xB0 JUMPI RETURNDATASIZE PUSH1 0x0 DUP1 RETURNDATACOPY RETURNDATASIZE PUSH1 0x0 REVERT JUMPDEST POP POP POP POP PUSH1 0x40 MLOAD RETURNDATASIZE PUSH1 0x1F NOT PUSH1 0x1F DUP3 ADD AND DUP3 ADD DUP1 PUSH1 0x40 MSTORE POP DUP2 ADD SWAP1 PUSH2 0xD4 SWAP2 SWAP1 PUSH2 0x135 JUMP JUMPDEST POP POP POP POP PUSH2 0x15E JUMP JUMPDEST DUP1 MLOAD PUSH1 0x1 PUSH1 0x1 PUSH1 0xA0 SHL SUB DUP2 AND DUP2 EQ PUSH2 0xF4 JUMPI PUSH1 0x0 DUP1 REVERT JUMPDEST SWAP2 SWAP1 POP JUMP JUMPDEST PUSH1 0x0 DUP1 PUSH1 0x0 PUSH1 0x60 DUP5 DUP7 SUB SLT ISZERO PUSH2 0x10E JUMPI PUSH1 0x0 DUP1 REVERT JUMPDEST PUSH2 0x117 DUP5 PUSH2 0xDD JUMP JUMPDEST SWAP3 POP PUSH2 0x125 PUSH1 0x20 DUP6 ADD PUSH2 0xDD JUMP JUMPDEST SWAP2 POP PUSH1 0x40 DUP5 ADD MLOAD SWAP1 POP SWAP3 POP SWAP3 POP SWAP3 JUMP JUMPDEST PUSH1 0x0 PUSH1 0x20 DUP3 DUP5 SUB SLT ISZERO PUSH2 0x147 JUMPI PUSH1 0x0 DUP1 REVERT JUMPDEST DUP2 MLOAD DUP1 ISZERO ISZERO DUP2 EQ PUSH2 0x157 JUMPI PUSH1 0x0 DUP1 REVERT JUMPDEST SWAP4 SWAP3 POP POP POP JUMP JUMPDEST PUSH1 0x80 MLOAD PUSH1 0xA0 MLOAD PUSH1 0xC0 MLOAD PUSH2 0x281 PUSH2 0x19F PUSH1 0x0 CODECOPY PUSH1 0x0 DUP2 DUP2 PUSH1 0x61 ADD MSTORE PUSH2 0x178 ADD MSTORE PUSH1 0x0 DUP2 DUP2 PUSH1 0x9B ADD MSTORE PUSH2 0x151 ADD MSTORE PUSH1 0x0 DUP2 DUP2 PUSH1 0xE4 ADD MSTORE PUSH2 0x129 ADD MSTORE PUSH2 0x281 PUSH1 0x0 RETURN INVALID PUSH1 0x80 PUSH1 0x40 MSTORE CALLVALUE DUP1 ISZERO PUSH2 0x10 JUMPI PUSH1 0x0 DUP1 REVERT JUMPDEST POP PUSH1 0x4 CALLDATASIZE LT PUSH2 0x57 JUMPI PUSH1 0x0 CALLDATALOAD PUSH1 0xE0 SHR DUP1 PUSH4 0x752A0920 EQ PUSH2 0x5C JUMPI DUP1 PUSH4 0x7651B1E6 EQ PUSH2 0x96 JUMPI DUP1 PUSH4 0x7F2DCED7 EQ PUSH2 0xD5 JUMPI DUP1 PUSH4 0x82BFEFC8 EQ PUSH2 0xDF JUMPI DUP1 PUSH4 0xD340EF8A EQ PUSH2 0x106 JUMPI JUMPDEST PUSH1 0x0 DUP1 REVERT JUMPDEST PUSH2 0x83 PUSH32 0x0 DUP2 JUMP JUMPDEST PUSH1 0x40 MLOAD SWAP1 DUP2 MSTORE PUSH1 0x20 ADD JUMPDEST PUSH1 0x40 MLOAD DUP1 SWAP2 SUB SWAP1 RETURN JUMPDEST PUSH2 0xBD PUSH32 0x0 DUP2 JUMP JUMPDEST PUSH1 0x40 MLOAD PUSH1 0x1 PUSH1 0x1 PUSH1 0xA0 SHL SUB SWAP1 SWAP2 AND DUP2 MSTORE PUSH1 0x20 ADD PUSH2 0x8D JUMP JUMPDEST PUSH2 0xDD PUSH2 0x10F JUMP JUMPDEST STOP JUMPDEST PUSH2 0xBD PUSH32 0x0 DUP2 JUMP JUMPDEST PUSH2 0x83 PUSH1 0x0 SLOAD DUP2 JUMP JUMPDEST PUSH1 0x0 SLOAD PUSH1 0x40 MLOAD PUSH4 0x13523A87 PUSH1 0xE0 SHL DUP2 MSTORE PUSH1 0x1 PUSH1 0x1 PUSH1 0xA0 SHL SUB PUSH32 0x0 DUP2 AND PUSH1 0x4 DUP4 ADD MSTORE PUSH32 0x0 AND PUSH1 0x24 DUP3 ADD MSTORE PUSH32 0x0 PUSH1 0x44 DUP3 ADD MSTORE PUSH1 0x64 DUP2 ADD SWAP2 SWAP1 SWAP2 MSTORE PUSH20 0x7893BBB46613D7A4FBCC31DAB4C9B823FFEE1026 PUSH1 0x84 DUP3 ADD MSTORE PUSH20 0x0 SWAP1 PUSH4 0x13523A87 SWAP1 PUSH1 0xA4 ADD PUSH1 0x20 PUSH1 0x40 MLOAD DUP1 DUP4 SUB DUP2 DUP7 DUP1 EXTCODESIZE ISZERO DUP1 ISZERO PUSH2 0x1F5 JUMPI PUSH1 0x0 DUP1 REVERT JUMPDEST POP GAS DELEGATECALL ISZERO DUP1 ISZERO PUSH2 0x209 JUMPI RETURNDATASIZE PUSH1 0x0 DUP1 RETURNDATACOPY RETURNDATASIZE PUSH1 0x0 REVERT JUMPDEST POP POP POP POP PUSH1 0x40 MLOAD RETURNDATASIZE PUSH1 0x1F NOT PUSH1 0x1F DUP3 ADD AND DUP3 ADD DUP1 PUSH1 0x40 MSTORE POP DUP2 ADD SWAP1 PUSH2 0x22D SWAP2 SWAP1 PUSH2 0x232 JUMP JUMPDEST PUSH1 0x0 SSTORE JUMP JUMPDEST PUSH1 0x0 PUSH1 0x20 DUP3 DUP5 SUB SLT ISZERO PUSH2 0x244 JUMPI PUSH1 0x0 DUP1 REVERT JUMPDEST POP MLOAD SWAP2 SWAP1 POP JUMP INVALID LOG2 PUSH5 0x6970667358 0x22 SLT KECCAK256 PUSH6 0x981DD8DD90C5 MOD SWAP12 0xAA 0xD4 PUSH31 0xAC0B6C8C94963502CC5001C6A227D5247C65B3C764736F6C63430008090033 LOG2 PUSH5 0x6970667358 0x22 SLT KECCAK256 0xDA 0xE1 PUSH17 0xC716DBA9F7BE48E1707035DFD3EA68121B 0xD3 PUSH23 0x3CB8123E1BB6C60F7AAF64736F6C634300080900330000 ","sha1":"30eca0c1b4b6cec194a2356c19bcb16717685c71","source":"// SPDX-License-Identifier: MIT\npragma solidity ^0.8.9;\n\nimport \"./BribesManager.sol\";\n\ncontract BribesFactory {\n    \n    event NewManager(address token, address gauge, uint tokens_per_vote);\n\n    function deployManager(address token, address gauge, uint tokens_per_vote) public returns (BribesManager) {\n        BribesManager b = new BribesManager(token, gauge, tokens_per_vote); \n        emit NewManager(token, gauge, tokens_per_vote);\n        return b;\n    }\n}","sourcePath":"contracts/BribesFactory.sol","deployment":{"address":"0x9d781CD4a17c133B46222ED811254517b6DC8Fc3","chainid":"3","blockHeight":11599548}}