{
  "abi": [
    {
      "inputs": [
        {
          "internalType": "address",
          "name": "token",
          "type": "address"
        },
        {
          "internalType": "address",
          "name": "gauge",
          "type": "address"
        },
        {
          "internalType": "uint256",
          "name": "tokens_per_vote",
          "type": "uint256"
        }
      ],
      "stateMutability": "nonpayable",
      "type": "constructor"
    },
    {
      "inputs": [],
      "name": "GAUGE",
      "outputs": [
        {
          "internalType": "address",
          "name": "",
          "type": "address"
        }
      ],
      "stateMutability": "view",
      "type": "function"
    },
    {
      "inputs": [],
      "name": "TOKEN",
      "outputs": [
        {
          "internalType": "address",
          "name": "",
          "type": "address"
        }
      ],
      "stateMutability": "view",
      "type": "function"
    },
    {
      "inputs": [],
      "name": "TOKENS_PER_VOTE",
      "outputs": [
        {
          "internalType": "uint256",
          "name": "",
          "type": "uint256"
        }
      ],
      "stateMutability": "view",
      "type": "function"
    },
    {
      "inputs": [],
      "name": "lastPeriod",
      "outputs": [
        {
          "internalType": "uint256",
          "name": "",
          "type": "uint256"
        }
      ],
      "stateMutability": "view",
      "type": "function"
    },
    {
      "inputs": [],
      "name": "sendBribe",
      "outputs": [],
      "stateMutability": "nonpayable",
      "type": "function"
    }
  ],
  "bytecode": "60e060405234801561001057600080fd5b5060405161046f38038061046f83398101604081905261002f91610066565b6001600160a01b03928316608052911660a05260c0526100a2565b80516001600160a01b038116811461006157600080fd5b919050565b60008060006060848603121561007b57600080fd5b6100848461004a565b92506100926020850161004a565b9150604084015190509250925092565b60805160a05160c05161037e6100f160003960008181606101528181610138015261024c015260008181609b015261022501526000818160e40152818161015e01526101fd015261037e6000f3fe608060405234801561001057600080fd5b50600436106100575760003560e01c8063752a09201461005c5780637651b1e6146100965780637f2dced7146100d557806382bfefc8146100df578063d340ef8a14610106575b600080fd5b6100837f000000000000000000000000000000000000000000000000000000000000000081565b6040519081526020015b60405180910390f35b6100bd7f000000000000000000000000000000000000000000000000000000000000000081565b6040516001600160a01b03909116815260200161008d565b6100dd61010f565b005b6100bd7f000000000000000000000000000000000000000000000000000000000000000081565b61008360005481565b60405163095ea7b360e01b8152737893bbb46613d7a4fbcc31dab4c9b823ffee102660048201527f000000000000000000000000000000000000000000000000000000000000000060248201527f00000000000000000000000000000000000000000000000000000000000000006001600160a01b03169063095ea7b390604401602060405180830381600087803b1580156101aa57600080fd5b505af11580156101be573d6000803e3d6000fd5b505050506040513d601f19601f820116820180604052508101906101e29190610306565b506000546040516313523a8760e01b81526001600160a01b037f0000000000000000000000000000000000000000000000000000000000000000811660048301527f00000000000000000000000000000000000000000000000000000000000000001660248201527f000000000000000000000000000000000000000000000000000000000000000060448201526064810191909152737893bbb46613d7a4fbcc31dab4c9b823ffee1026608482015273__BribesLogic___________________________906313523a879060a40160206040518083038186803b1580156102c957600080fd5b505af41580156102dd573d6000803e3d6000fd5b505050506040513d601f19601f82011682018060405250810190610301919061032f565b600055565b60006020828403121561031857600080fd5b8151801515811461032857600080fd5b9392505050565b60006020828403121561034157600080fd5b505191905056fea26469706673582212208da73f073cf09d37903b805e9133cc16ca0935f9388b2a927bd76f8331d75ce664736f6c63430008090033",
  "bytecodeSha1": "7add12bde004ae89b12e0e346db710869ea952fd",
  "compiler": {
    "evm_version": "istanbul",
    "optimizer": {
      "enabled": true,
      "runs": 200
    },
    "version": "0.8.9+commit.e5eed63a"
  },
  "contractName": "BribesManager",
  "deployedBytecode": "608060405234801561001057600080fd5b50600436106100575760003560e01c8063752a09201461005c5780637651b1e6146100965780637f2dced7146100d557806382bfefc8146100df578063d340ef8a14610106575b600080fd5b6100837f000000000000000000000000000000000000000000000000000000000000000081565b6040519081526020015b60405180910390f35b6100bd7f000000000000000000000000000000000000000000000000000000000000000081565b6040516001600160a01b03909116815260200161008d565b6100dd61010f565b005b6100bd7f000000000000000000000000000000000000000000000000000000000000000081565b61008360005481565b60405163095ea7b360e01b8152737893bbb46613d7a4fbcc31dab4c9b823ffee102660048201527f000000000000000000000000000000000000000000000000000000000000000060248201527f00000000000000000000000000000000000000000000000000000000000000006001600160a01b03169063095ea7b390604401602060405180830381600087803b1580156101aa57600080fd5b505af11580156101be573d6000803e3d6000fd5b505050506040513d601f19601f820116820180604052508101906101e29190610306565b506000546040516313523a8760e01b81526001600160a01b037f0000000000000000000000000000000000000000000000000000000000000000811660048301527f00000000000000000000000000000000000000000000000000000000000000001660248201527f000000000000000000000000000000000000000000000000000000000000000060448201526064810191909152737893bbb46613d7a4fbcc31dab4c9b823ffee1026608482015273__$8d3e982442eab610d721b37768c40888b9$__906313523a879060a40160206040518083038186803b1580156102c957600080fd5b505af41580156102dd573d6000803e3d6000fd5b505050506040513d601f19601f82011682018060405250810190610301919061032f565b600055565b60006020828403121561031857600080fd5b8151801515811461032857600080fd5b9392505050565b60006020828403121561034157600080fd5b505191905056fea26469706673582212208da73f073cf09d37903b805e9133cc16ca0935f9388b2a927bd76f8331d75ce664736f6c63430008090033",
  "language": "Solidity",
  "natspec": {
    "kind": "dev",
    "methods": {
      "constructor": {
        "params": {
          "gauge": "address of the curve gauge",
          "token": "Address of the reward/incentive token",
          "tokens_per_vote": "number of tokens to add as incentives per vote"
        }
      }
    },
    "version": 1
  },
  "opcodes": "PUSH1 0x80 PUSH1 0x40 MSTORE CALLVALUE DUP1 ISZERO PUSH2 0x10 JUMPI PUSH1 0x0 DUP1 REVERT JUMPDEST POP PUSH1 0x4 CALLDATASIZE LT PUSH2 0x57 JUMPI PUSH1 0x0 CALLDATALOAD PUSH1 0xE0 SHR DUP1 PUSH4 0x752A0920 EQ PUSH2 0x5C JUMPI DUP1 PUSH4 0x7651B1E6 EQ PUSH2 0x96 JUMPI DUP1 PUSH4 0x7F2DCED7 EQ PUSH2 0xD5 JUMPI DUP1 PUSH4 0x82BFEFC8 EQ PUSH2 0xDF JUMPI DUP1 PUSH4 0xD340EF8A EQ PUSH2 0x106 JUMPI JUMPDEST PUSH1 0x0 DUP1 REVERT JUMPDEST PUSH2 0x83 PUSH32 0x0 DUP2 JUMP JUMPDEST PUSH1 0x40 MLOAD SWAP1 DUP2 MSTORE PUSH1 0x20 ADD JUMPDEST PUSH1 0x40 MLOAD DUP1 SWAP2 SUB SWAP1 RETURN JUMPDEST PUSH2 0xBD PUSH32 0x0 DUP2 JUMP JUMPDEST PUSH1 0x40 MLOAD PUSH1 0x1 PUSH1 0x1 PUSH1 0xA0 SHL SUB SWAP1 SWAP2 AND DUP2 MSTORE PUSH1 0x20 ADD PUSH2 0x8D JUMP JUMPDEST PUSH2 0xDD PUSH2 0x10F JUMP JUMPDEST STOP JUMPDEST PUSH2 0xBD PUSH32 0x0 DUP2 JUMP JUMPDEST PUSH2 0x83 PUSH1 0x0 SLOAD DUP2 JUMP JUMPDEST PUSH1 0x40 MLOAD PUSH4 0x95EA7B3 PUSH1 0xE0 SHL DUP2 MSTORE PUSH20 0x7893BBB46613D7A4FBCC31DAB4C9B823FFEE1026 PUSH1 0x4 DUP3 ADD MSTORE PUSH32 0x0 PUSH1 0x24 DUP3 ADD MSTORE PUSH32 0x0 PUSH1 0x1 PUSH1 0x1 PUSH1 0xA0 SHL SUB AND SWAP1 PUSH4 0x95EA7B3 SWAP1 PUSH1 0x44 ADD PUSH1 0x20 PUSH1 0x40 MLOAD DUP1 DUP4 SUB DUP2 PUSH1 0x0 DUP8 DUP1 EXTCODESIZE ISZERO DUP1 ISZERO PUSH2 0x1AA JUMPI PUSH1 0x0 DUP1 REVERT JUMPDEST POP GAS CALL ISZERO DUP1 ISZERO PUSH2 0x1BE JUMPI RETURNDATASIZE PUSH1 0x0 DUP1 RETURNDATACOPY RETURNDATASIZE PUSH1 0x0 REVERT JUMPDEST POP POP POP POP PUSH1 0x40 MLOAD RETURNDATASIZE PUSH1 0x1F NOT PUSH1 0x1F DUP3 ADD AND DUP3 ADD DUP1 PUSH1 0x40 MSTORE POP DUP2 ADD SWAP1 PUSH2 0x1E2 SWAP2 SWAP1 PUSH2 0x306 JUMP JUMPDEST POP PUSH1 0x0 SLOAD PUSH1 0x40 MLOAD PUSH4 0x13523A87 PUSH1 0xE0 SHL DUP2 MSTORE PUSH1 0x1 PUSH1 0x1 PUSH1 0xA0 SHL SUB PUSH32 0x0 DUP2 AND PUSH1 0x4 DUP4 ADD MSTORE PUSH32 0x0 AND PUSH1 0x24 DUP3 ADD MSTORE PUSH32 0x0 PUSH1 0x44 DUP3 ADD MSTORE PUSH1 0x64 DUP2 ADD SWAP2 SWAP1 SWAP2 MSTORE PUSH20 0x7893BBB46613D7A4FBCC31DAB4C9B823FFEE1026 PUSH1 0x84 DUP3 ADD MSTORE PUSH20 0x0 SWAP1 PUSH4 0x13523A87 SWAP1 PUSH1 0xA4 ADD PUSH1 0x20 PUSH1 0x40 MLOAD DUP1 DUP4 SUB DUP2 DUP7 DUP1 EXTCODESIZE ISZERO DUP1 ISZERO PUSH2 0x2C9 JUMPI PUSH1 0x0 DUP1 REVERT JUMPDEST POP GAS DELEGATECALL ISZERO DUP1 ISZERO PUSH2 0x2DD JUMPI RETURNDATASIZE PUSH1 0x0 DUP1 RETURNDATACOPY RETURNDATASIZE PUSH1 0x0 REVERT JUMPDEST POP POP POP POP PUSH1 0x40 MLOAD RETURNDATASIZE PUSH1 0x1F NOT PUSH1 0x1F DUP3 ADD AND DUP3 ADD DUP1 PUSH1 0x40 MSTORE POP DUP2 ADD SWAP1 PUSH2 0x301 SWAP2 SWAP1 PUSH2 0x32F JUMP JUMPDEST PUSH1 0x0 SSTORE JUMP JUMPDEST PUSH1 0x0 PUSH1 0x20 DUP3 DUP5 SUB SLT ISZERO PUSH2 0x318 JUMPI PUSH1 0x0 DUP1 REVERT JUMPDEST DUP2 MLOAD DUP1 ISZERO ISZERO DUP2 EQ PUSH2 0x328 JUMPI PUSH1 0x0 DUP1 REVERT JUMPDEST SWAP4 SWAP3 POP POP POP JUMP JUMPDEST PUSH1 0x0 PUSH1 0x20 DUP3 DUP5 SUB SLT ISZERO PUSH2 0x341 JUMPI PUSH1 0x0 DUP1 REVERT JUMPDEST POP MLOAD SWAP2 SWAP1 POP JUMP INVALID LOG2 PUSH5 0x6970667358 0x22 SLT KECCAK256 DUP14 0xA7 EXTCODEHASH SMOD EXTCODECOPY CREATE SWAP14 CALLDATACOPY SWAP1 EXTCODESIZE DUP1 0x5E SWAP2 CALLER 0xCC AND 0xCA MULMOD CALLDATALOAD 0xF9 CODESIZE DUP12 0x2A SWAP3 PUSH28 0xD76F8331D75CE664736F6C6343000809003300000000000000000000 ",
  "sha1": "6da006e95b9c45ff8d9927a845a694048406452e",
  "source": "// SPDX-License-Identifier: MIT\npragma solidity ^0.8.9;\n\nimport \"../interfaces/token/IERC20.sol\";\nimport \"./library/BribesLogic.sol\";\n\ncontract BribesManager {\n    address public immutable TOKEN;\n    address public immutable GAUGE;\n    uint public immutable TOKENS_PER_VOTE;\n    uint public lastPeriod;\n    address constant CURVE_BRIBE = 0x7893bbb46613d7a4FbcC31Dab4C9b823FfeE1026;\n\n    /// @param token Address of the reward/incentive token\n    /// @param gauge address of the curve gauge\n    /// @param tokens_per_vote number of tokens to add as incentives per vote\n    constructor(address token, address gauge, uint tokens_per_vote) {\n        TOKEN = token;\n        GAUGE = gauge;\n        TOKENS_PER_VOTE = tokens_per_vote;\n    }\n\n    function sendBribe() public {\n        IERC20(TOKEN).approve(CURVE_BRIBE, TOKENS_PER_VOTE);\n        lastPeriod = BribesLogic.sendBribe(TOKEN, GAUGE, TOKENS_PER_VOTE, lastPeriod, CURVE_BRIBE);\n    }\n}",
  "sourcePath": "contracts/BribesManager.sol",
  "type": "contract"
}