{
  "abi": [
    {
      "anonymous": false,
      "inputs": [
        {
          "indexed": false,
          "internalType": "address",
          "name": "bribesManager",
          "type": "address"
        },
        {
          "indexed": false,
          "internalType": "address",
          "name": "token",
          "type": "address"
        },
        {
          "indexed": false,
          "internalType": "uint256",
          "name": "gaugeIndex",
          "type": "uint256"
        },
        {
          "indexed": false,
          "internalType": "uint256",
          "name": "tokensPerVote",
          "type": "uint256"
        }
      ],
      "name": "NewManager",
      "type": "event"
    },
    {
      "inputs": [
        {
          "internalType": "address",
          "name": "token",
          "type": "address"
        },
        {
          "internalType": "uint256",
          "name": "gaugeIndex",
          "type": "uint256"
        },
        {
          "internalType": "uint256",
          "name": "tokensPerVote",
          "type": "uint256"
        }
      ],
      "name": "deployManager",
      "outputs": [
        {
          "internalType": "contract BribesManager",
          "name": "",
          "type": "address"
        }
      ],
      "stateMutability": "nonpayable",
      "type": "function"
    }
  ],
  "bytecode": "608060405234801561001057600080fd5b506105d7806100206000396000f3fe608060405234801561001057600080fd5b506004361061002b5760003560e01c8063380d426614610030575b600080fd5b61004361003e366004610115565b61005f565b6040516001600160a01b03909116815260200160405180910390f35b60008084848460405161007190610108565b6001600160a01b03909316835260208301919091526040820152606001604051809103906000f0801580156100aa573d6000803e3d6000fd5b50604080516001600160a01b03808416825288166020820152908101869052606081018590529091507ff769a832e0d12ada7ed2d75c2136586aac621b53358f38adf2a1190d32fc10939060800160405180910390a1949350505050565b61044b8061015783390190565b60008060006060848603121561012a57600080fd5b83356001600160a01b038116811461014157600080fd5b9560208501359550604090940135939250505056fe60e060405234801561001057600080fd5b5060405161044b38038061044b83398101604081905261002f91610048565b6001600160a01b0390921660805260a05260c05261008b565b60008060006060848603121561005d57600080fd5b83516001600160a01b038116811461007457600080fd5b602085015160409095015190969495509392505050565b60805160a05160c0516103716100da60003960008181607601528181610143015261023601526000818160ef015261025c01526000818160b001528181610169015261020801526103716000f3fe608060405234801561001057600080fd5b50600436106100575760003560e01c806316fab16e1461005c578063752a09201461007157806382bfefc8146100ab578063cc4de8aa146100ea578063d6740cdb14610111575b600080fd5b61006f61006a3660046102f9565b61011a565b005b6100987f000000000000000000000000000000000000000000000000000000000000000081565b6040519081526020015b60405180910390f35b6100d27f000000000000000000000000000000000000000000000000000000000000000081565b6040516001600160a01b0390911681526020016100a2565b6100987f000000000000000000000000000000000000000000000000000000000000000081565b61009860005481565b60405163095ea7b360e01b81527319bbc3463dd8d07f55438014b021fb457ebd459560048201527f000000000000000000000000000000000000000000000000000000000000000060248201527f00000000000000000000000000000000000000000000000000000000000000006001600160a01b03169063095ea7b390604401602060405180830381600087803b1580156101b557600080fd5b505af11580156101c9573d6000803e3d6000fd5b505050506040513d601f19601f820116820180604052508101906101ed9190610312565b5060005460405163dbf15fc560e01b81526001600160a01b037f0000000000000000000000000000000000000000000000000000000000000000166004820152602481018390527f000000000000000000000000000000000000000000000000000000000000000060448201527f0000000000000000000000000000000000000000000000000000000000000000606482015260848101919091527319bbc3463dd8d07f55438014b021fb457ebd459560a482015273__BribesLogic___________________________9063dbf15fc59060c40160006040518083038186803b1580156102d957600080fd5b505af41580156102ed573d6000803e3d6000fd5b50505060009190915550565b60006020828403121561030b57600080fd5b5035919050565b60006020828403121561032457600080fd5b8151801515811461033457600080fd5b939250505056fea2646970667358221220b6facae888ace3a9d7992525979732c4a00bb6bbc865975f30bd332f29a1b22064736f6c63430008090033a26469706673582212205ff749a68163e2c393d6f7c07d952325eba9d5975b8125d714692025e0d8f35364736f6c63430008090033",
  "bytecodeSha1": "855d6738a2e85fee52710c5f9ca107cdffe4beee",
  "compiler": {
    "evm_version": "istanbul",
    "optimizer": {
      "enabled": true,
      "runs": 200
    },
    "version": "0.8.9+commit.e5eed63a"
  },
  "contractName": "BribesFactory",
  "deployedBytecode": "608060405234801561001057600080fd5b506004361061002b5760003560e01c8063380d426614610030575b600080fd5b61004361003e366004610115565b61005f565b6040516001600160a01b03909116815260200160405180910390f35b60008084848460405161007190610108565b6001600160a01b03909316835260208301919091526040820152606001604051809103906000f0801580156100aa573d6000803e3d6000fd5b50604080516001600160a01b03808416825288166020820152908101869052606081018590529091507ff769a832e0d12ada7ed2d75c2136586aac621b53358f38adf2a1190d32fc10939060800160405180910390a1949350505050565b61044b8061015783390190565b60008060006060848603121561012a57600080fd5b83356001600160a01b038116811461014157600080fd5b9560208501359550604090940135939250505056fe60e060405234801561001057600080fd5b5060405161044b38038061044b83398101604081905261002f91610048565b6001600160a01b0390921660805260a05260c05261008b565b60008060006060848603121561005d57600080fd5b83516001600160a01b038116811461007457600080fd5b602085015160409095015190969495509392505050565b60805160a05160c0516103716100da60003960008181607601528181610143015261023601526000818160ef015261025c01526000818160b001528181610169015261020801526103716000f3fe608060405234801561001057600080fd5b50600436106100575760003560e01c806316fab16e1461005c578063752a09201461007157806382bfefc8146100ab578063cc4de8aa146100ea578063d6740cdb14610111575b600080fd5b61006f61006a3660046102f9565b61011a565b005b6100987f000000000000000000000000000000000000000000000000000000000000000081565b6040519081526020015b60405180910390f35b6100d27f000000000000000000000000000000000000000000000000000000000000000081565b6040516001600160a01b0390911681526020016100a2565b6100987f000000000000000000000000000000000000000000000000000000000000000081565b61009860005481565b60405163095ea7b360e01b81527319bbc3463dd8d07f55438014b021fb457ebd459560048201527f000000000000000000000000000000000000000000000000000000000000000060248201527f00000000000000000000000000000000000000000000000000000000000000006001600160a01b03169063095ea7b390604401602060405180830381600087803b1580156101b557600080fd5b505af11580156101c9573d6000803e3d6000fd5b505050506040513d601f19601f820116820180604052508101906101ed9190610312565b5060005460405163dbf15fc560e01b81526001600160a01b037f0000000000000000000000000000000000000000000000000000000000000000166004820152602481018390527f000000000000000000000000000000000000000000000000000000000000000060448201527f0000000000000000000000000000000000000000000000000000000000000000606482015260848101919091527319bbc3463dd8d07f55438014b021fb457ebd459560a482015273__$8d3e982442eab610d721b37768c40888b9$__9063dbf15fc59060c40160006040518083038186803b1580156102d957600080fd5b505af41580156102ed573d6000803e3d6000fd5b50505060009190915550565b60006020828403121561030b57600080fd5b5035919050565b60006020828403121561032457600080fd5b8151801515811461033457600080fd5b939250505056fea2646970667358221220b6facae888ace3a9d7992525979732c4a00bb6bbc865975f30bd332f29a1b22064736f6c63430008090033a26469706673582212205ff749a68163e2c393d6f7c07d952325eba9d5975b8125d714692025e0d8f35364736f6c63430008090033",
  "language": "Solidity",
  "natspec": {
    "kind": "dev",
    "methods": {},
    "version": 1
  },
  "opcodes": "PUSH1 0x80 PUSH1 0x40 MSTORE CALLVALUE DUP1 ISZERO PUSH2 0x10 JUMPI PUSH1 0x0 DUP1 REVERT JUMPDEST POP PUSH1 0x4 CALLDATASIZE LT PUSH2 0x2B JUMPI PUSH1 0x0 CALLDATALOAD PUSH1 0xE0 SHR DUP1 PUSH4 0x380D4266 EQ PUSH2 0x30 JUMPI JUMPDEST PUSH1 0x0 DUP1 REVERT JUMPDEST PUSH2 0x43 PUSH2 0x3E CALLDATASIZE PUSH1 0x4 PUSH2 0x115 JUMP JUMPDEST PUSH2 0x5F JUMP JUMPDEST PUSH1 0x40 MLOAD PUSH1 0x1 PUSH1 0x1 PUSH1 0xA0 SHL SUB SWAP1 SWAP2 AND DUP2 MSTORE PUSH1 0x20 ADD PUSH1 0x40 MLOAD DUP1 SWAP2 SUB SWAP1 RETURN JUMPDEST PUSH1 0x0 DUP1 DUP5 DUP5 DUP5 PUSH1 0x40 MLOAD PUSH2 0x71 SWAP1 PUSH2 0x108 JUMP JUMPDEST PUSH1 0x1 PUSH1 0x1 PUSH1 0xA0 SHL SUB SWAP1 SWAP4 AND DUP4 MSTORE PUSH1 0x20 DUP4 ADD SWAP2 SWAP1 SWAP2 MSTORE PUSH1 0x40 DUP3 ADD MSTORE PUSH1 0x60 ADD PUSH1 0x40 MLOAD DUP1 SWAP2 SUB SWAP1 PUSH1 0x0 CREATE DUP1 ISZERO DUP1 ISZERO PUSH2 0xAA JUMPI RETURNDATASIZE PUSH1 0x0 DUP1 RETURNDATACOPY RETURNDATASIZE PUSH1 0x0 REVERT JUMPDEST POP PUSH1 0x40 DUP1 MLOAD PUSH1 0x1 PUSH1 0x1 PUSH1 0xA0 SHL SUB DUP1 DUP5 AND DUP3 MSTORE DUP9 AND PUSH1 0x20 DUP3 ADD MSTORE SWAP1 DUP2 ADD DUP7 SWAP1 MSTORE PUSH1 0x60 DUP2 ADD DUP6 SWAP1 MSTORE SWAP1 SWAP2 POP PUSH32 0xF769A832E0D12ADA7ED2D75C2136586AAC621B53358F38ADF2A1190D32FC1093 SWAP1 PUSH1 0x80 ADD PUSH1 0x40 MLOAD DUP1 SWAP2 SUB SWAP1 LOG1 SWAP5 SWAP4 POP POP POP POP JUMP JUMPDEST PUSH2 0x44B DUP1 PUSH2 0x157 DUP4 CODECOPY ADD SWAP1 JUMP JUMPDEST PUSH1 0x0 DUP1 PUSH1 0x0 PUSH1 0x60 DUP5 DUP7 SUB SLT ISZERO PUSH2 0x12A JUMPI PUSH1 0x0 DUP1 REVERT JUMPDEST DUP4 CALLDATALOAD PUSH1 0x1 PUSH1 0x1 PUSH1 0xA0 SHL SUB DUP2 AND DUP2 EQ PUSH2 0x141 JUMPI PUSH1 0x0 DUP1 REVERT JUMPDEST SWAP6 PUSH1 0x20 DUP6 ADD CALLDATALOAD SWAP6 POP PUSH1 0x40 SWAP1 SWAP5 ADD CALLDATALOAD SWAP4 SWAP3 POP POP POP JUMP INVALID PUSH1 0xE0 PUSH1 0x40 MSTORE CALLVALUE DUP1 ISZERO PUSH2 0x10 JUMPI PUSH1 0x0 DUP1 REVERT JUMPDEST POP PUSH1 0x40 MLOAD PUSH2 0x44B CODESIZE SUB DUP1 PUSH2 0x44B DUP4 CODECOPY DUP2 ADD PUSH1 0x40 DUP2 SWAP1 MSTORE PUSH2 0x2F SWAP2 PUSH2 0x48 JUMP JUMPDEST PUSH1 0x1 PUSH1 0x1 PUSH1 0xA0 SHL SUB SWAP1 SWAP3 AND PUSH1 0x80 MSTORE PUSH1 0xA0 MSTORE PUSH1 0xC0 MSTORE PUSH2 0x8B JUMP JUMPDEST PUSH1 0x0 DUP1 PUSH1 0x0 PUSH1 0x60 DUP5 DUP7 SUB SLT ISZERO PUSH2 0x5D JUMPI PUSH1 0x0 DUP1 REVERT JUMPDEST DUP4 MLOAD PUSH1 0x1 PUSH1 0x1 PUSH1 0xA0 SHL SUB DUP2 AND DUP2 EQ PUSH2 0x74 JUMPI PUSH1 0x0 DUP1 REVERT JUMPDEST PUSH1 0x20 DUP6 ADD MLOAD PUSH1 0x40 SWAP1 SWAP6 ADD MLOAD SWAP1 SWAP7 SWAP5 SWAP6 POP SWAP4 SWAP3 POP POP POP JUMP JUMPDEST PUSH1 0x80 MLOAD PUSH1 0xA0 MLOAD PUSH1 0xC0 MLOAD PUSH2 0x371 PUSH2 0xDA PUSH1 0x0 CODECOPY PUSH1 0x0 DUP2 DUP2 PUSH1 0x76 ADD MSTORE DUP2 DUP2 PUSH2 0x143 ADD MSTORE PUSH2 0x236 ADD MSTORE PUSH1 0x0 DUP2 DUP2 PUSH1 0xEF ADD MSTORE PUSH2 0x25C ADD MSTORE PUSH1 0x0 DUP2 DUP2 PUSH1 0xB0 ADD MSTORE DUP2 DUP2 PUSH2 0x169 ADD MSTORE PUSH2 0x208 ADD MSTORE PUSH2 0x371 PUSH1 0x0 RETURN INVALID PUSH1 0x80 PUSH1 0x40 MSTORE CALLVALUE DUP1 ISZERO PUSH2 0x10 JUMPI PUSH1 0x0 DUP1 REVERT JUMPDEST POP PUSH1 0x4 CALLDATASIZE LT PUSH2 0x57 JUMPI PUSH1 0x0 CALLDATALOAD PUSH1 0xE0 SHR DUP1 PUSH4 0x16FAB16E EQ PUSH2 0x5C JUMPI DUP1 PUSH4 0x752A0920 EQ PUSH2 0x71 JUMPI DUP1 PUSH4 0x82BFEFC8 EQ PUSH2 0xAB JUMPI DUP1 PUSH4 0xCC4DE8AA EQ PUSH2 0xEA JUMPI DUP1 PUSH4 0xD6740CDB EQ PUSH2 0x111 JUMPI JUMPDEST PUSH1 0x0 DUP1 REVERT JUMPDEST PUSH2 0x6F PUSH2 0x6A CALLDATASIZE PUSH1 0x4 PUSH2 0x2F9 JUMP JUMPDEST PUSH2 0x11A JUMP JUMPDEST STOP JUMPDEST PUSH2 0x98 PUSH32 0x0 DUP2 JUMP JUMPDEST PUSH1 0x40 MLOAD SWAP1 DUP2 MSTORE PUSH1 0x20 ADD JUMPDEST PUSH1 0x40 MLOAD DUP1 SWAP2 SUB SWAP1 RETURN JUMPDEST PUSH2 0xD2 PUSH32 0x0 DUP2 JUMP JUMPDEST PUSH1 0x40 MLOAD PUSH1 0x1 PUSH1 0x1 PUSH1 0xA0 SHL SUB SWAP1 SWAP2 AND DUP2 MSTORE PUSH1 0x20 ADD PUSH2 0xA2 JUMP JUMPDEST PUSH2 0x98 PUSH32 0x0 DUP2 JUMP JUMPDEST PUSH2 0x98 PUSH1 0x0 SLOAD DUP2 JUMP JUMPDEST PUSH1 0x40 MLOAD PUSH4 0x95EA7B3 PUSH1 0xE0 SHL DUP2 MSTORE PUSH20 0x19BBC3463DD8D07F55438014B021FB457EBD4595 PUSH1 0x4 DUP3 ADD MSTORE PUSH32 0x0 PUSH1 0x24 DUP3 ADD MSTORE PUSH32 0x0 PUSH1 0x1 PUSH1 0x1 PUSH1 0xA0 SHL SUB AND SWAP1 PUSH4 0x95EA7B3 SWAP1 PUSH1 0x44 ADD PUSH1 0x20 PUSH1 0x40 MLOAD DUP1 DUP4 SUB DUP2 PUSH1 0x0 DUP8 DUP1 EXTCODESIZE ISZERO DUP1 ISZERO PUSH2 0x1B5 JUMPI PUSH1 0x0 DUP1 REVERT JUMPDEST POP GAS CALL ISZERO DUP1 ISZERO PUSH2 0x1C9 JUMPI RETURNDATASIZE PUSH1 0x0 DUP1 RETURNDATACOPY RETURNDATASIZE PUSH1 0x0 REVERT JUMPDEST POP POP POP POP PUSH1 0x40 MLOAD RETURNDATASIZE PUSH1 0x1F NOT PUSH1 0x1F DUP3 ADD AND DUP3 ADD DUP1 PUSH1 0x40 MSTORE POP DUP2 ADD SWAP1 PUSH2 0x1ED SWAP2 SWAP1 PUSH2 0x312 JUMP JUMPDEST POP PUSH1 0x0 SLOAD PUSH1 0x40 MLOAD PUSH4 0xDBF15FC5 PUSH1 0xE0 SHL DUP2 MSTORE PUSH1 0x1 PUSH1 0x1 PUSH1 0xA0 SHL SUB PUSH32 0x0 AND PUSH1 0x4 DUP3 ADD MSTORE PUSH1 0x24 DUP2 ADD DUP4 SWAP1 MSTORE PUSH32 0x0 PUSH1 0x44 DUP3 ADD MSTORE PUSH32 0x0 PUSH1 0x64 DUP3 ADD MSTORE PUSH1 0x84 DUP2 ADD SWAP2 SWAP1 SWAP2 MSTORE PUSH20 0x19BBC3463DD8D07F55438014B021FB457EBD4595 PUSH1 0xA4 DUP3 ADD MSTORE PUSH20 0x0 SWAP1 PUSH4 0xDBF15FC5 SWAP1 PUSH1 0xC4 ADD PUSH1 0x0 PUSH1 0x40 MLOAD DUP1 DUP4 SUB DUP2 DUP7 DUP1 EXTCODESIZE ISZERO DUP1 ISZERO PUSH2 0x2D9 JUMPI PUSH1 0x0 DUP1 REVERT JUMPDEST POP GAS DELEGATECALL ISZERO DUP1 ISZERO PUSH2 0x2ED JUMPI RETURNDATASIZE PUSH1 0x0 DUP1 RETURNDATACOPY RETURNDATASIZE PUSH1 0x0 REVERT JUMPDEST POP POP POP PUSH1 0x0 SWAP2 SWAP1 SWAP2 SSTORE POP JUMP JUMPDEST PUSH1 0x0 PUSH1 0x20 DUP3 DUP5 SUB SLT ISZERO PUSH2 0x30B JUMPI PUSH1 0x0 DUP1 REVERT JUMPDEST POP CALLDATALOAD SWAP2 SWAP1 POP JUMP JUMPDEST PUSH1 0x0 PUSH1 0x20 DUP3 DUP5 SUB SLT ISZERO PUSH2 0x324 JUMPI PUSH1 0x0 DUP1 REVERT JUMPDEST DUP2 MLOAD DUP1 ISZERO ISZERO DUP2 EQ PUSH2 0x334 JUMPI PUSH1 0x0 DUP1 REVERT JUMPDEST SWAP4 SWAP3 POP POP POP JUMP INVALID LOG2 PUSH5 0x6970667358 0x22 SLT KECCAK256 0xB6 STATICCALL 0xCA 0xE8 DUP9 0xAC 0xE3 0xA9 0xD7 SWAP10 0x25 0x25 SWAP8 SWAP8 ORIGIN 0xC4 LOG0 SIGNEXTEND 0xB6 0xBB 0xC8 PUSH6 0x975F30BD332F 0x29 LOG1 0xB2 KECCAK256 PUSH5 0x736F6C6343 STOP ADDMOD MULMOD STOP CALLER LOG2 PUSH5 0x6970667358 0x22 SLT KECCAK256 0x5F 0xF7 0x49 0xA6 DUP2 PUSH4 0xE2C393D6 0xF7 0xC0 PUSH30 0x952325EBA9D5975B8125D714692025E0D8F35364736F6C63430008090033 ",
  "sha1": "fcbe6ce10394cceb540a02892be792ba50cbe242",
  "source": "// SPDX-License-Identifier: MIT\npragma solidity ^0.8.9;\n\nimport \"./BribesManager.sol\";\n\ncontract BribesFactory {\n    \n    event NewManager(address bribesManager, address token, uint gaugeIndex, uint tokensPerVote);\n\n    function deployManager(address token, uint gaugeIndex, uint tokensPerVote) public returns (BribesManager) {\n        BribesManager b = new BribesManager(token, gaugeIndex, tokensPerVote); \n        emit NewManager(address(b), token, gaugeIndex, tokensPerVote);\n        return b;\n    }\n}",
  "sourcePath": "contracts/BribesFactory.sol",
  "type": "contract"
}